:020000040800F2
:1000000090130020151B0008A51E0008A71E00085D
:1000100000000000000000000000000000000000E0
:10002000000000000000000000000000AB1E0008FF
:100030000000000000000000AD1E0008AF1E000818
:10004000271B0008271B0008271B0008271B000888
:10005000271B0008271B0008271B0008FF2000089B
:10006000271B0008271B0008271B0008271B000868
:10007000271B0008271B0008271B0008271B000858
:10008000271B0008271B000800000000271B000892
:10009000271B0008271B0008271B0008271B000838
:1000A00053210008271B0008271B0008531F0008C6
:1000B0002920000800000000271B000800000000A5
:1000C00000F002F800F030F80CA030C8083824180E
:1000D0002D18A246671EAB4654465D46AC4201D180
:1000E00000F022F87E460F3E0FCCB6460126334282
:1000F00000D0FB1AA246AB4633431847B47A00003F
:10010000D47A00000023002400250026103A01D3F1
:1001100078C1FBD8520700D330C100D50B607047BF
:100120001FB51FBD10B510BD05F01EFF1146FFF72E
:10013000F7FF01F007FE05F036FF03B4FFF7F2FF0B
:1001400003BC05F089FF000070B505460C46164655
:1001500002E00FCC0FC5103E102EFAD2082E02D3AB
:1001600003CC03C5083E042E07D301CC01C5361FBE
:1001700003E021782970641C6D1C761EF9D270BDD5
:100180000168584A114001600021016041608160AE
:10019000C1605549884208D15349083949680F223E
:1001A0001143514A083A516035E04F4914318842B1
:1001B00008D14D4908394968F02211434A4A083AA2
:1001C000516028E048492831884209D14649083918
:1001D00049680F2212021143434A083A51601AE05B
:1001E00041493C31884209D13F49083949680F22C9
:1001F000120311433C4A083A51600CE03A4950312D
:10020000884208D13849083949680F22120411433D
:10021000354A083A5160704710B500220268334BE6
:100220001A400C6A8B6823430C6923434C692343AF
:100230008C692343CC6923434C6A23438C6A234350
:100240001A430260CB6843600B6883604B68C360ED
:1002500010BD0021016041608160C16001614161A8
:100260008161C1610162416281627047002904D0ED
:10027000026801231A43026003E00268194B1A4026
:1002800002607047416070470146486880B270471D
:10029000002A03D003680B43036002E003688B432A
:1002A00003607047014600200F4A083A12680A406E
:1002B000002A01D0012000E0002070470A490839D7
:1002C0004860704701460020074A083A12680A4011
:1002D000002A01D0012000E00020704702490839BF
:1002E00048607047FEFF0000080002400F80FFFFDB
:1002F0003A483B490860002048608860C860394837
:1003000048617047002136498279002A35D00A4673
:10031000126803689A430B461A600A4652680368DB
:100320009A430B465A60027951180A6803681A43C7
:100330000A602B4A926803689A43294B9A601A46CE
:10034000D26803689A43264BDA604279102A0CD1AE
:100350001A46926803681A43214B9A601A46D2687B
:1003600003681A431E4BDA600DE01D4942795118AB
:100370000A6803681A430A6005E0027951180A689E
:1003800003689A430A6070470021016001710C21E3
:100390004171002181717047114909690143104A77
:1003A00011617047014600200D4A52690A40002A37
:1003B00001D0012000E000207047094948617047E2
:1003C00001460020064A52690A40002A01D0012055
:1003D00000E0002070470249486170470000940F18
:1003E00000040140FFFF6B0010B504460920C00661
:1003F000844209D10121480400F03BFE0021012084
:10040000400400F036FE30E06E48844208D10121FD
:10041000000200F02EFE0021200200F02AFE24E05F
:100420006948844208D10121000200F022FE002127
:10043000200200F01EFE18E06448844209D1012128
:10044000080500F016FE00210120000500F011FE55
:100450000BE05F48844208D10121880500F009FEC5
:1004600000210120800500F004FE10BDF0B50A4611
:1004700000210023002400BF3DE001258D402B46D4
:1004800015681D402C469C4234D11579012D02D0AF
:100490001579022D16D185684F000326BE40B5435D
:1004A000856055794E00B5408668354385608588FE
:1004B00001268E40B5438580858896798E40B6B2F8
:1004C0003543858005684F000326BE40B54305606F
:1004D00015794E00B540066835430560C5684F0084
:1004E0000326BE40B543C560D5794E00B540C66809
:1004F0003543C560491C1029BFD3F0BD35490160A3
:10050000002101710121417100218171C171704788
:1005100008B5012212040092009A0A430092009A40
:10052000C261C161009AC261C2690092C26900924F
:1005300008BD02460020138A0B40002B01D0012089
:1005400000E0002070470146088A704702460020FC
:10055000938A0B40002B01D0012000E0002070475F
:100560000146888A70478161704701857047002A7B
:1005700001D0816100E00185704781827047F0B54C
:10058000002300244D07EE0E1546B5402B46CD1036
:10059000AE0005462035AD594E07F70E0F26BE407A
:1005A000B543CE10B60007462037BD51CD10AE0082
:1005B0003D46AD591D432C46CD10AD003E4674510D
:1005C000F0BD00000004004800080048000C00488E
:1005D00000140048FFFF000010B50446F9488442AB
:1005E00009D10121480500F060FD002101204005EE
:1005F00000F05BFD08E00121880500F056FD0021B8
:100600000120800500F051FD10BD10B50A46002103
:1006100003685B085B0003600168EB4B194094685A
:10062000240253682343194301600F2424061368EE
:10063000A343036103680124234303600021816015
:10064000C16014699369234319468160836801245A
:10065000E40323438360D16803680B43036041686C
:10066000DA4B194053691943416010BD0021016004
:1006700041608160C16001610121C90341610021C4
:1006800081617047002904D0026801231A43026087
:1006900003E002685208520002607047016849088E
:1006A000490001600168016801221143016070473F
:1006B000002A03D003680B43036002E003688B4306
:1006C00003607047002905D0026801235B049A4348
:1006D000026004E0026801235B041A430260704771
:1006E000002905D0026801239B041A43026004E03C
:1006F000026801239B049A4302607047002905D0D9
:10070000C2680123DB031A43C26004E0C26801230C
:10071000DB039A43C260704770B50B460021C16885
:10072000AB4C2140FE241C40150207263602354002
:100730002C432143C16070BD002905D0026801230C
:10074000DB041A43026004E002680123DB049A43DD
:1007500002607047002905D0026801231B041A4378
:10076000026004E0026801231B049A4302607047A0
:100770000A4600214168890A890293059B0D1943A5
:1007800041607047002905D042680123DB021A430B
:10079000426004E042680123DB029A4342607047F2
:1007A000002905D0426801235B061A43426004E039
:1007B000426801235B069A4342607047002905D0D6
:1007C000426801231B061A43426004E04268012389
:1007D0001B069A434260704710B50A4600214168E3
:1007E000FF2424040B46A343194613042340194352
:1007F000416010BD002905D1426801239B029A4344
:10080000426004E0426801239B021A434260704741
:10081000002905D0426801235B031A43426004E0CB
:10082000426801235B039A4342607047002905D068
:10083000426801239B031A43426004E0426801239B
:100840009B039A4342607047002905D04268012308
:100850001B031A43426004E0426801231B039A43CE
:1008600042607047002905D042680123DB039A43A8
:10087000426004E042680123DB031A434260704790
:10088000014688697F2252041040000C704710B561
:100890000146002200208B690124240423401A46CB
:1008A000002A00D101E00120800210BDF0B50C4605
:1008B00000214168474D2940A505AD0D1604FF27CD
:1008C0003F043E4035431D43059E35432943416067
:1008D000F0BD002905D0026801239B051A43026080
:1008E00004E0026801239B059A43026070470029D7
:1008F00005D042690123DB031A43426104E04269E7
:100900000123DB039A4342617047002905D0426905
:100910000123DB071A43426103E042695200520897
:1009200042617047002905D0426901231B031A4325
:10093000426104E0426901231B039A43426170470C
:100940000A4600214169090B090313051B0D1943D0
:100950004161704710B50A46002141691E4B19409C
:1009600013041D4CE44323401943416110BD002989
:1009700005D002680123DB051A43026004E0026827
:100980000123DB059A4302607047002905D0026805
:1009900001239B061A43026004E0026801239B06C0
:1009A0009A43026070470146086AC0B2704708B5B2
:1009B0000246002000900092009840180090009895
:1009C000006808BD00540040FFE0CF00FF7FFF0734
:1009D00001F8FFFF009800FCFFFF00F08162704704
:1009E0000146486AC0B27047002A03D003680B432F
:1009F000036002E003688B430360704710B5024652
:100A00000023002093691C460C402346002B01D094
:100A1000012000E0002010BDC161704770B50246A2
:100A20000023002000243F252D020D40002D04D07E
:100A30001568802635402C460BE0C0250D40002D62
:100A400004D01568402635402C4602E015680D405C
:100A50002C4693691D460D402B46002B03D0002CDD
:100A600001D0012000E0002070BDC161704700008E
:100A700000218278002A27D0274A03231B02D2189C
:100A800003789B109B00D15802789207D30EFF2267
:100A90009A400B469343194642789207120E037808
:100AA0009B07DB0E9A4011431B4A03231B02D218FB
:100AB00003789B109B00D1500278D306DB0E0122F5
:100AC0009A40154B1A6007E00278D306DB0E01222C
:100AD0009A40114B80331A607047002905D00F4AA5
:100AE000126902430D4B1A6104E00C4A12698243F9
:100AF0000A4B1A617047042806D109490969042282
:100B00001143074A116105E005490969042291432F
:100B1000034A11617047000000E100E000ED00E0D1
:100B200000E000E0FD48006801210843FB4908603F
:100B300008464068FA490840F84948600846006895
:100B4000F8490840F5490860084600680121890411
:100B50008843F2490860084640683F2109048843F9
:100B6000EE4948600846C06A00090001C8620846AC
:100B7000006BFF2154318843E84908630846406B05
:100B80004008400048630020886070470021E34A25
:100B9000917011468870704710B5024600210023FD
:100BA00000205111002902D1DC4C23680BE00129FF
:100BB00002D1DA4C236A06E0022902D1D74C636ADB
:100BC00001E0D64C636BD106C90E01248C401C4059
:100BD000002C01D0012000E0002010BD38B500201D
:100BE00000900024002500BF1120FFF7D5FF054627
:100BF0000098401C0090052109030098884201D00C
:100C0000002DF1D01120FFF7C7FF002801D00124EB
:100C100000E00024204638BD01460020BF4A10688D
:100C2000F82302469A431046CA001043BB4A10609C
:100C30007047002806D0B949096801221143B74A14
:100C4000116005E0B549096849084900B34A1160D7
:100C5000704701460020B14A506BF82302469A4380
:100C60001046CA001043AD4A50637047002806D0B2
:100C7000AA49496B01221143A84A516305E0A749DB
:100C8000496B49084900A54A51637047002806D0BE
:100C9000A249496B04229143A04A516305E09F4950
:100CA000496B042211439D4A516370479B49096A6D
:100CB00049084900994A11621146096A0422914380
:100CC000964A11621146096A0143116270479349BD
:100CD000096A18229143914A11621146096A014337
:100CE00011627047002806D08C49496A01221143DD
:100CF0008A4A516205E08949496A49084900874A98
:100D000051627047854A52683D231B049A43834BC6
:100D10005A601A46526803460B431A437F4B5A6087
:100D20007047002807D07D49096801221206114347
:100D30007A4A116006E07949096801221206914356
:100D4000764A1160704701460020744AD06A000953
:100D5000000102460A431046704AD06270470028DC
:100D600007D06E4909680122D20411436B4A116011
:100D700006E06A4909680122D2049143674A11607A
:100D800070476649C871704701460020634A506841
:100D90008008800002460A431046604A506070474F
:100DA0005E4840680C2108407047014600205B4ABD
:100DB0005068F02302469A43104602460A43104602
:100DC000564A5060704701460020544A5068072335
:100DD0001B0202469A43104602460A4310464F4AF7
:100DE000506070474D4949680122920391434B4A34
:100DF00051601146496882B21143484A5160114618
:100E0000096B92159143454A11631146096B020C17
:100E10001143424A116370474049096B4022914394
:100E20003E4A11631146096B0143116370473B4908
:100E3000096B10229143394A11631146096B014332
:100E4000116370473549096B89088900334A11637A
:100E50001146096B014311637047FEB50446002536
:100E6000002600200190009000272C4840680C21AB
:100E700008400546002D04D0042D05D0082D28D1AA
:100E800005E02948206027E02748206024E0234827
:100E900040680F2189040840064620484068012127
:100EA000090408400190B00C861C0198002803D169
:100EB0001E48704320600BE01848C06A0007000F0E
:100EC000401C00901848009903F0ABFF704320606D
:100ED00002E01548206000BF00BF10484068F021C4
:100EE000084005462D091248475D2068F8406060BB
:100EF0000A48406807210902084005462D0A0C48A7
:100F0000475D6068F840A0600448006BFF21013134
:100F10000840884210D00748E0601BE00010024003
:100F20000CB8FFF8FFFFF6FE00127A0000093D0042
:100F300000000020809FD50075484068012189038A
:100F40000840884203D0A0684008E06002E0A06842
:100F50008008E0606E48006B40210840402802D0C5
:100F60006C48206102E00120C00320616848006BEA
:100F700010210840102802D06748606101E0206815
:100F800060616348006B8007800F002802D1A06871
:100F9000A06119E05E48006B8007800F012802D134
:100FA0002068A06110E05A48006B8007800F02287B
:100FB00002D18003A06107E05548006B8007800FD5
:100FC000032801D15448A061FEBD5149096A01437B
:100FD0004F4A11627047002807D04D49096A012223
:100FE000D20311434A4A116206E04949096A0122C3
:100FF000D2039143464A11627047002807D0444902
:10100000096A012212041143414A116206E0404973
:10101000096A0122120491433D4A11627047002976
:1010200005D03B4A52690243394B5A6104E0384AC1
:1010300052698243364B5A617047002905D0344AC1
:1010400092690243324B9A6104E0314A92698243C9
:101050002F4B9A617047002905D02D4AD26902436F
:101060002B4BDA6104E02A4AD2698243284BDA61C9
:101070007047002905D0264A926A0243244B9A629F
:1010800004E0234A926A8243214B9A627047002906
:1010900005D01F4AD26802431D4BDA6004E01C4AA7
:1010A000D26882431A4BDA607047002905D0184A8B
:1010B00012690243164B1A6104E0154A1269824311
:1010C000134B1A617047002905D0114A527A024326
:1010D0000F4B5A7204E00E4A527A82430C4B5A72FA
:1010E00070470B48406A01210906084308494862D5
:1010F000704701460020064A92680A40002A01D043
:10110000012000E00020704701498872704700000C
:10111000001002401280000000127A0010B5044650
:10112000E348844208D101218014FFF7B0FF002179
:10113000A014FFF7ACFF0AE0DE48844207D101218A
:101140000014FFF7B2FF00212014FFF7AEFF10BD1F
:101150000021018041800721090281800021C18096
:10116000018141818181C18107210182704710B5D0
:1011700000220288C1239B011A400B88CC8923439B
:10118000CC8823430C8923434C8923438C892343F4
:101190001A4302808288C84B1A408B881A43828087
:1011A0000B8A03820288C54B1A404B881A4302807F
:1011B000838BC34C2340838310BD00210180418079
:1011C0008180C18002218160002181817047F0B55A
:1011D0008DB005460C4600200C9002270B90012094
:1011E0000A90002600200290A88BB349BF3908401E
:1011F000A88302202884A88B0C90A068022802D122
:1012000000200B9038E0A088002802D101200A902D
:1012100001E002200A9003A8FFF71FFE0398029046
:10122000E0880121490288420AD1A168029A120A83
:101230000A235A43104603F0F4FD401D86B20CE029
:101240000A984101029803F0ECFD0A2148430190FD
:10125000A16803F0E6FD401D86B20A21304603F086
:10126000E0FD0646F007C00F0B900B98301AC00344
:10127000070C0B9800020B90022F01DBFF2F02DD01
:10128000022700200B90E0880B99084338432884FC
:10129000A088A18908436188084321880843012167
:1012A000C90208430C9908430C900C98A8830DB010
:1012B000F0BD002904D0028840231A43028004E0D4
:1012C00002887E4B3C3B1A4002807047002904D0C4
:1012D000828810231A43828004E08288774B0C3B7B
:1012E0001A4082807047002905D0828B01239B021F
:1012F0001A43828303E0828B724B1A4082837047C9
:101300000A46002181886C4B19400B46134319464D
:101310008180704782886C4B1A40828082880A43A1
:101320008280704701229203914204D102880B46C9
:101330001A43028003E00288644B1A40028070471F
:101340005E4AFC3A914205D00288FF2301331A43DA
:10135000028004E00288594BFC3B1A40028070472F
:10136000002904D0828804231A43828003E0828803
:10137000524B1A4082807047002904D0828808238B
:101380001A43828004E082884C4B1B1F1A408280E3
:101390007047002202460C321170704781817047FD
:1013A000014600220A460C321078704701468889AF
:1013B00070470288424B1A40028002880A4302802A
:1013C0007047002905D0028801235B031A4302807D
:1013D00003E002883E4B1A400280704701880122D8
:1013E000120311430180704702460020012901D0F9
:1013F000108B00E0908A70470146088A7047002AE7
:1014000003D083880B43838002E083888B438380EF
:10141000704782882F4B1A40828082880A438280DC
:10142000704730B5002400230C110125A540ABB254
:10143000002A03D085881D43858002E085889D436E
:10144000858030BD014608890322D20210407047D2
:1014500001460889032252021040704702460020CC
:1014600013890B40002B01D0012000E000207047C1
:10147000CA4302817047F0B50246002000240023D1
:1014800000250F073F0F0126BE40B4B20B11012605
:101490009E40B3B296881E40354616892640002EDF
:1014A00003D0002D01D0012000E00020F0BD00009D
:1014B0000030014000380040FFF00000FBFF00005A
:1014C000FFF70000FFFB0000FFEF0000FFBF000080
:1014D000FFDF0000FF9F00003A4800688007800F90
:1014E000384908600020886000213648C1600161E9
:1014F00041618069FF2101310843324988617047A9
:10150000014600202F4A10688008800002460A43E6
:1015100010462C4A10607047002905D0294A1268ED
:101520000243284B1A6004E0264A12688243254B86
:101530001A607047002905D0224A12680243214BE5
:101540001A6004E01F4A126882431E4B1A607047FB
:1015500030B500228B071C0F0F23A3401A46194BEE
:1015600008338C10A4001B599343164C08348D107B
:10157000AD00635123468C10A4001B598C07250F26
:101580000446AC4023430F4C08348D10AD0063512A
:1015900030BD0C49896901430A4A9161704701468F
:1015A0000020084A9269FF2301331A40002A01D023
:1015B000012000E000207047024989690143014A87
:1015C000916170470000014010B50446F64884421E
:1015D00009D101218803FFF75AFD00210120800372
:1015E000FFF755FD0BE0F148844208D10121480482
:1015F000FFF75BFD002101204004FFF756FD10BD01
:10160000F0B589B004460D4600270020089000265A
:1016100020684008400020606668032109033046C6
:1016200088430646A868064366602668E048064088
:10163000E968686808432969084306432660A66884
:101640000321090230468843064668690643A660BE
:1016500001A8FFF702FCD448844202D10798089001
:1016600001E00398089020680121C9030840002880
:101670000CD02968089A500003F0D3FB074629686C
:10168000089A500003F0CDFB0E4609E0296808983F
:1016900003F0C7FB07462968089803F0C2FB0E4613
:1016A00028684008B04200D87F1C20680121C90387
:1016B0000840002806D03807460F3846BD49084084
:1016C00030430746A78109B0F0BD4B21C901016035
:1016D000002141608160C1600C21016100214161F4
:1016E000704710B5002242680F2424021346A3431A
:1016F0001A464C680B6823438C682343CC68234309
:101700001A43426010BD0021016041608160C160E8
:101710007047002904D0026801231A43026003E0E5
:1017200002685208520002607047002A03D0036822
:101730000B43036002E003688B430360704700299A
:1017400005D002680123DB031A43026004E002684B
:101750000123DB039A4302607047002905D08268A9
:101760000123DB021A43826004E082680123DB026A
:101770009A4382607047002905D042680123DB0448
:101780001A43426004E042680123DB049A4342604A
:101790007047002905D0426801239B041A43426028
:1017A00004E0426801239B049A4342607047002A88
:1017B00003D043680B43436002E043688B434360BC
:1017C0007047002905D042680123DB031A434260B9
:1017D00004E042680123DB039A434260704700291A
:1017E00005D042680123DB051A43426004E04268E9
:1017F0000123DB059A43426070474269120E1206CC
:10180000426142690A4342617047028AFF231B0218
:101810001A400282028A0A4302827047002904D0D9
:10182000026802231A43026003E0026802239A431B
:1018300002607047826803231B059A4382608268B6
:101840000A4382607047002905D0426801231B05C6
:101850001A43426004E0426801231B059A43426038
:101860007047426803235B059A43426042680A431B
:1018700042607047CA05D20D028570470146888CC8
:10188000C005C00D704742681202120A42604268E9
:101890000B061A4342607047002905D002680123F5
:1018A0005B031A43026004E0026801235B039A436E
:1018B0000260704702680123DB029A4302600268FB
:1018C0000A4302607047426810239A4342604268AC
:1018D0000A4342607047426820239A43426042684C
:1018E0000A4342607047002905D0426801239B03E8
:1018F0001A43426004E0426801239B039A4342601A
:101900007047002904D0826808231A43826003E0EC
:10191000826808239A4382607047028AD2B20282A8
:10192000028A0B021A4302827047002904D082689F
:1019300020231A43826003E0826820239A43826056
:101940007047002904D0826810231A43826003E0A4
:10195000826810239A4382607047826807235B0481
:101960009A43826082684B041A43826070474269DE
:101970001202120A426142690B061A434261704721
:10198000826804239A43826082680A4382607047B7
:10199000002904D0826802231A43826003E082682F
:1019A00002239A438260704700380140004400409F
:1019B000F3E9FFFFF0FF0000002905D08268012352
:1019C0009B031A43826004E0826801239B039A43CD
:1019D0008260704782680123DB039A4382608268D9
:1019E0000A438260704702681F235B059A430260C6
:1019F00002684B051A430260704702681F231B04EC
:101A00009A43026002680B041A4302607047002A7E
:101A100003D083680B43836002E083688B43836059
:101A20007047826801235B039A43826082680A439D
:101A300082607047F8B50346002400260096002512
:101A4000002018460E04340ECEB200960127009EE8
:101A5000B7403D46022C01D1001D02E0032C00D10D
:101A60000830002A03D006682E43066002E00668AC
:101A7000AE430660F8BD002A03D0038B0B430383FB
:101A800002E0038B8B4303837047826801231B03AF
:101A90009A43826082680A4382607047024600204F
:101AA000D3690B40002B01D0012000E000207047DB
:101AB0000162704770B502460B46002400210025E4
:101AC00000201E04350ED9B201268E403146012D6C
:101AD00002D11668314006E0022D02D1566831402D
:101AE00001E0966831401C0C0126A6403446D669B8
:101AF0003440002903D0002C01D0012000E0002058
:101B000070BD10B5002300220B0C01249C4022461E
:101B1000026210BD0748804707480047FEE7FEE71E
:101B2000FEE7FEE7FEE7FEE704480549054A064BE7
:101B3000704700001B1C0008C1000008900D002029
:101B400090130020900F0020900F00200CB5002073
:101B5000019000907348006801210904084371490D
:101B6000086000BF6F4800680121490408400090E8
:101B70000198401C01900098002804D10521090318
:101B800001988842EED16748006801214904084065
:101B9000002802D00120009001E000200090009871
:101BA000012839D11120604908605E4840685D49CC
:101BB0004860084640684860084640683F2109047C
:101BC0008843584948600846406811210904084381
:101BD00054494860084600680121090608435149F4
:101BE000086000BF4F4800680121490608400028EE
:101BF000F8D04C484068800880004A494860084650
:101C00004068022108434749486000BF4548406892
:101C10000C2108400828F9D10CBD10B541480068D6
:101C2000012108433F490860084640683F49084091
:101C30003C494860084600683D4908403949086009
:101C4000084600680121890488433649086008462F
:101C500040683F2109048843324948600846C06A09
:101C600000090001C8620846006BFF215431884317
:101C70002C4908630846406B400840004863002038
:101C80008860FFF763FF10BDF8B50025002400262B
:101C90000027244840680C2108400546002D04D048
:101CA000042D06D0082D2AD107E0224822490860D9
:101CB00029E020482049086025E01A4840680F21A3
:101CC0008904084004461748406801210904084077
:101CD0000646A00C841C002E04D118486043164907
:101CE00008600BE00F48C06A0007000F471C394628
:101CF000104803F096F860430F49086003E00D4870
:101D00000D49086000BF00BF06484068F021084048
:101D100000090B490D5C08480068E8400649086066
:101D2000F8BD000000100240002002400CB8FFF88F
:101D3000FFFFF6FE00127A001000002000093D00AF
:101D400014000020FFB0C9B000BF0027142000908D
:101D5000012601203E4908803E483F490880AA20CC
:101D60003E4908803A480288084601883A48008877
:101D700002F0DCFDC82000F075F80022FF21F531EB
:101D8000012000F077F862E002F002FF002E2DD172
:101D900001A802F027FE012000F078F8002856D0B4
:101DA000019882B2002102A8009B02F025F80546A6
:101DB000002088A908704D7000240EE06846008954
:101DC000C1B26000801C88AA1154684600890112C3
:101DD0006000C01C1154601CC4B2AC42EEDB680051
:101DE000821C88A91E4801F065FD30E0012E2ED12D
:101DF00007A948A801F000FE002828D0002768465F
:101E0000027F48A908A801F0BDFF002411E060008E
:101E1000801C08A9085C6100C91C08AA515C090261
:101E200008430B490988884201D1012705E0601C5D
:101E3000C4B208A84078A042E9DC00BF012F03D15A
:101E4000012002F01AFD02E0012002F00EFD9BE7E6
:101E500028000020AB0900002400002026000020FC
:101E6000FFFF0000E5490860E54908600121E54AF7
:101E70001160704730B58300E34CE1508300E34CC0
:101E8000E15001238400E24D2B5130BD0146E14871
:101E9000405C012804D10020DE4A505401207047E4
:101EA0000020FCE7704700BFFEE770477047002046
:101EB00000BF1EE0C100D84A5158002917D0C10008
:101EC0005158491EC200D44B995000290FD1C1006E
:101ED0001A4689184968C200995019464031097854
:101EE000012282401143CAB2194640310A70411C96
:101EF000C8B20828DEDB002017E08100C44A515830
:101F0000012910D18100C14A5158491E8200BF4B9E
:101F10009950002907D18100BB4A5158820099503D
:101F20000121BC4A1154411CC8B20828E5DBB5495F
:101F3000096801290CD1B2490968491EB04A1160EB
:101F4000002905D1AD49096811600121B34A11602A
:101F5000704710B5B249B348FFF7ACFD002844D034
:101F6000B048FFF78BFCB049B04A12888854AF489C
:101F70000088401E085C7F280DD10846AB490988BF
:101F8000405C252807D17F20A7490870252048708C
:101F90000120A6490880A5480088401EA249085C87
:101FA0000D2815D10846A1490988405C0A280FD19F
:101FB0009E480088421E9C499D4802F0D1FE9B48E5
:101FC0000088401E9B4908700020984908800CE05A
:101FD00096480088402805DA94480088401C9349B8
:101FE000088002E000209149088093498D48FFF75E
:101FF00061FD002817D091480478601C8F4A10704A
:102000008F48015D8748FFF735FC8C4800788D4983
:102010000978884207D1002287498248FFF70AFDE4
:1020200000208949087010BD10B57D498748FFF729
:1020300041FD002844D08548FFF720FC7A497B4ABF
:102040001288885479480088401E085C7F280DD18A
:10205000084676490988405C252807D17F207249C7
:102060000870252048700120704908806F4800885A
:10207000401E6D49085C0D2815D108466B4909883A
:10208000405C0A280FD169480088421E66497048A2
:1020900002F066FE65480088401E6E490870002008
:1020A000624908800CE061480088402805DA5F48F2
:1020B0000088401C5D49088002E000205B490880E0
:1020C0005D496248FFF7F6FC002817D05B480478AA
:1020D000601C5A4A10705A48015D5C48FFF7CAFB01
:1020E0005648007857490978884207D1002252495A
:1020F0005648FFF79FFC00205349087010BD10B5EB
:102100000024FF200130FEF75BF9002820D03120A9
:1021100001F0BDF80446312001F0B9F80443E007AE
:10212000C00F002802D000204B4908700820204032
:10213000082802D101204949087040202040402849
:1021400002D1002046490870FF200130FEF743F914
:1021500010BD10B5012149034248FEF75FFC00287D
:1021600004D0012149033F48FEF77FFC0121090308
:102170003C48FEF753FC002804D0012109033948EC
:10218000FEF773FC012149023648FEF747FC0028A0
:1021900004D0012149023348FEF767FC0121C9023E
:1021A0003048FEF73BFC002804D00121C9022D482D
:1021B000FEF75BFC012189022A48FEF72FFC00286C
:1021C00004D0012189022748FEF74FFC1021254841
:1021D000FEF724FC002803D010212248FEF745FC1E
:1021E000FF2101311F48FEF719FC002804D0FF2110
:1021F00001311C48FEF739FC10BD000044000020EE
:10220000400000203C0000202402002004020020A6
:10221000E40100204C000020540000204800002071
:102220000501050000380140AB0900205E010020D7
:1022300084020020E0000020070107005C0100206C
:10224000AC0800205A01002060010020004400403A
:10225000C4020020E10000206F0100207001002076
:10226000710100200054004000B587B001214804EE
:10227000FEF7D5FE01210803FEF7DFFE0121084627
:10228000FEF7CDFEE020059002216846017603218D
:102290004176002181760121C17605A90920C00679
:1022A000FEF7E4F810200590012168460176002130
:1022B00081760121C1760321417605A90920C00656
:1022C000FEF7D4F810200921C906886100220521F3
:1022D0000920C006FEF753F9002206210920C00696
:1022E000FEF74DF9002207210920C006FEF747F945
:1022F000002168460180FF21053141800721090244
:1023000081800021C1800181012149024181202178
:1023100081810021C18169463F48FEF728FF0121E4
:1023200009033D48FEF7F6FF012211463A48FFF740
:1023300066F8012202213848FFF761F8012136488A
:10234000FEF7B7FF07B000BD30B58BB004460D46B1
:1023500010210920C006FEF7F9F8002801D10BB0C2
:1023600030BD10202D4908812D48FDF709FF2C486C
:102370001438FDF705FF039527480C3000900194B1
:102380000020029001204003099000200690079051
:10239000049080200590002008900A90694620480B
:1023A0001438FDF739FF03951B480C300090019459
:1023B000102002900020099069461948FDF72CFF73
:1023C000012117481438FDF751FF01211448FDF78A
:1023D0004DFF00BF01204002FDF764FF0028F9D047
:1023E00000BF2020FDF75EFF0028FAD000210C4836
:1023F000FDF73CFF00210A481438FDF737FF0120A4
:102400004002FDF75BFF2020FDF758FF1020092157
:10241000C90688610120A2E7003001402000004881
:102420003000024010B588B001A8FEF716FD7D21EE
:10243000C900029802F0F5FC04462B48844200D9FA
:102440000EE02002000A401E284948610321081FAF
:1024500000F013F80020254988610720086100BFBB
:1024600008B010BD704701B521490098086100BF50
:102470001F4800690028FBD108BD10B5002819DAF3
:102480001C4A03071B0F083B9B089B00D25883077D
:10249000DC0EFF23A3409A438B071B0E8407E40E38
:1024A000A3401A43134B0407240F083CA408A400BC
:1024B0001A5118E0104A03231B02D21883089B000C
:1024C000D2588307DC0EFF23A3409A438B071B0ED1
:1024D0008407E40EA3401A43074B032424021B196C
:1024E0008408A4001A5110BDFFFFFF0000E000E0C7
:1024F000540000201CED00E000E100E000B58BB0CE
:10250000182108A801700021417001218170FEF797
:10251000AFFA01218804FEF782FD01218805FEF74C
:102520009AFD01210846FEF77AFD032080020990FA
:10253000022108A801720321417201218172002148
:10254000C17209A98648FDF791FF01220A2184483A
:10255000FEF715F801220B218148FEF710F8002044
:102560000490029003900590069007907D4801909A
:1025700001A97D48FEF749F801217B48FEF782F862
:102580000BB000BDFFB581B015461E4600270024E4
:102590000124240405E02046641E002801D105B072
:1025A000F0BD0121C9037048FEF728FA0028F2D1D6
:1025B000012040030023012200906B480199FEF79F
:1025C00075F90124240404E02046641E002800D18B
:1025D000E5E702216448FEF711FA0028F4D06248CA
:1025E0000299FEF7FBF90124240404E02046641E4E
:1025F000002800D1D3E740215B48FEF7FFF900280F
:10260000F4D009208002EAB201235B06009056480C
:102610000199FEF74BF9002713E00124240404E09C
:102620002046641E002800D1B9E704214E48FEF779
:10263000E5F90028F4D04C48FEF7D2F93070761C4A
:102640007F1CAF42E9D10124240404E02046641E2B
:10265000002800D1A3E720214348FEF7CFF9002846
:10266000F4D020214048FEF7D7F9012097E7FFB5C5
:1026700083B0074615461E46002002900024012420
:10268000240405E02046641E002801D107B0F0BDF7
:102690000121C9033448FEF7B1F90028F2D1012025
:1026A0004003C3020122394600902F48FEF7FEF88E
:1026B0000124240404E02046641E002800D1E5E73C
:1026C00002212948FEF79AF90028F4D026480499F7
:1026D000FEF784F90124240404E02046641E002847
:1026E00000D1D3E780212048FEF788F90028F4D0F4
:1026F0000020EAB201235B06394600901A48FEF733
:10270000D5F815E00124240404E02046641E0028C6
:1027100000D1BBE702211448FEF770F90028F4D07D
:102720003178761C1048FEF759F90298401C029047
:102730000298A842E6D10124240404E02046641E45
:10274000002800D1A2E720210748FEF757F900280A
:10275000F4D020210448FEF75FF9012096E700003D
:1027600000040048895E80100058004038B50446D7
:10277000002100916B4601226A21D020FFF777FFEC
:10278000822100916B4601223721D020FFF76FFF95
:102790006B46012200212046FFF7F4FE0121009143
:1027A0006B4601220A212046FFF761FF38BDF8B5CC
:1027B00007460C4615461E4600200090012069463B
:1027C00008706B4601220A213846FFF750FF00BF10
:1027D0000021684601706B46012202213846FFF74E
:1027E000D1FE684600780128F2D16B460122032110
:1027F0003846FFF7C7FE00AB0133012204213846FB
:10280000FFF7C0FE6846008820806B460122052144
:102810003846FFF7B7FE00AB0133012206213846E8
:10282000FFF7B0FE6846008828806B46012207212A
:102830003846FFF7A7FE00AB0133012208213846D6
:10284000FFF7A0FE6846008830806B460122092110
:102850003846FFF797FEF8BD7047F8B50C461546A9
:102860001E46069F2EE0644B0122FF218420FFF7C5
:1028700089FE61480078FF2824D05F48007824282A
:1028800002D100205D4908705B4800785C495B4AD2
:102890001278885459480078401E085C0D280CD1E5
:1028A000084656490978405C0A2806D10120554956
:1028B000087000205149087005E050480078401C1D
:1028C0004E490870CFE700BF4E48007801286FD10D
:1028D00000204C4908704CA1494802F0DDF94C49F0
:1028E000086008460068002862D008460068C07981
:1028F0002C28F9D008460068C07930380A214843AE
:1029000043490968097A3039441841480068407AD7
:1029100030380A2148433E490968897A30394518D8
:102920003B480068007B30386421414338480068E8
:10293000407B30380A225043091835480068807BB4
:1029400030380E1832480068007D30386421414329
:102950002F480068407D3038504309182C480068E3
:10296000807D30380F182A480068C07D30380A2131
:10297000484327490968097E3039401807902448A0
:102980000068807E30386421414321480068C07E61
:102990003038504309181E480068007F3038081846
:1029A00008901B480068807C4E2802D109900CE0FA
:1029B00021E017480068807C532801D1099004E089
:1029C000FF24FF25FF2600200990114800682030D1
:1029D0000078452801D10A900DE00D4800682030AC
:1029E0000078572801D10A9005E0FF27FF200790C3
:1029F000089000200A90F8BD98000020990000205F
:102A0000440200209A000020244750474C4C00000C
:102A10009C0000201CB5012103204004FEF7FFFAB2
:102A20005548009001216846017103214171002140
:102A300081710121C17169465048FDF717FD0120E0
:102A4000C0034E4988618020886140204B49203175
:102A500008813220FFF707FD402048498861802027
:102A60008861000288611CBD10B50246002305E0A4
:102A70001478521CE018C3B2481EC1B20029F7DC1A
:102A8000581CFF24201AC0B210BD70B506460C4673
:102A900015463B498C70224631463948C01C02F02D
:102AA0005FF9E01CC1B23648FFF7DEFF344AE11C93
:102AB00050540D21201D11540A21601D1154012D67
:102AC00007D100BFA01D81B22D4801F0A0FA002857
:102AD000F8D0022D07D100BFA01D81B2284801F017
:102AE00003FB0028F8D070BD10B5002425480078FD
:102AF00000281DD023480078401EC1B22248FFF7AD
:102B0000B3FF04461F490978491E1F4A515C884299
:102B10000BD110460079022803D11046C0781B491A
:102B200008707D20C0001A4988630020154908708C
:102B30001848007800281DD016480078401EC1B201
:102B40001548FFF791FF044612490978491E124AB9
:102B5000515C88420BD110460079012803D1104600
:102B6000C0780E4908707D20C00009490863002024
:102B70000849087010BD0000C08000000004004833
:102B8000A0000020E000002084020020D5010020E9
:102B900054000020E1000020C4020020D4010020E5
:102BA000F8B507460C4615461E46002000906B46B9
:102BB00001223C213846FFF7E5FC00AB013301223E
:102BC0003B213846FFF7DEFC68460088FE4909884D
:102BD000401800B220806B4601223E213846FFF7A4
:102BE000D1FC00AB013301223D213846FFF7CAFC7E
:102BF00068460088F5490988401800B228806B466D
:102C0000012240213846FFF7BDFC00AB0133012211
:102C10003F213846FFF7B6FC68460088EC49098832
:102C2000401800B23080F8BDF8B500240025002619
:102C3000002739E0E74BE84AE849D020FFF7B0FF2A
:102C4000642C10DDE6480068643084420BDCE34805
:102C50000021415E6D18E0480021415E7618DD4894
:102C60000021415E7F18DE4800686430844217D13D
:102C7000DB480168284602F0DEF800B2D949088036
:102C8000D7480168304602F0D6F800B2D64908802D
:102C9000D3480168384602F0CEF800B2D349088024
:102CA000641C0220FFF7DFFBCD48006865308442DA
:102CB000C0DBF8BD10B5CB480088404200B2C24925
:102CC0000880C9480088404200B2C0490880C7480F
:102CD0000088404200B2BE49088047E00024FFF768
:102CE000A3FFC049085F002801DB014600E0414224
:102CF000BF4A1268914201DC641C07E0B2480088B8
:102D0000B8490988401A00B2AF490880B649002086
:102D1000085E002801DB014600E04142B44A126827
:102D2000914201DC641C07E0A8480088AE4909888C
:102D3000401A00B2A5490880AC490020085E00286E
:102D400001DB014600E04142A94A1268914201DCE0
:102D5000641C07E09E480088A4490988401A00B214
:102D60009B490880032C00D101E000BFB6E700BFFB
:102D700010BD10B59F48006800280AD1FFF754FF26
:102D80009C480068401C9B4908607D20C000FFF7FC
:102D90006AFB9848006801280DD1FFF78BFF954822
:102DA0000068401C934908600020934908607D201A
:102DB000C000FFF758FB10BD38B504460021009154
:102DC0006B46012275212046FFF7DCFB00210091B4
:102DD0006B4601226B212046FFF749FC0721009139
:102DE0006B46012219212046FFF741FC0621009184
:102DF0006B4601221A212046FFF739FC1821009169
:102E00006B4601221B212046FFF731FC0021009177
:102E10006B4601221C212046FFF729FCFFF7A9FF82
:102E200038BDF0B58BB004460D4616461F466B49BB
:102E30000020085E02F082FF8D21C905009002F09B
:102E400083FE019002F056FE6C4A6D4B0391029096
:102E500002F02CFD0591049002F094F86949086095
:102E60005D490020085E02F069FF8D21C9050090D0
:102E700002F06AFE019002F03DFE604A604B039151
:102E8000029002F013FD0591049002F07BF85E4978
:102E9000086050490020085E02F050FF8D21C905EE
:102EA000009002F051FE019002F024FE534A544B70
:102EB0000391029002F0FAFC0591049002F062F88E
:102EC0005249086045490020085E002801DB0146A0
:102ED00000E04142FF22F532914211DB109802F0EE
:102EE0002DFF039047480168039804F01DFC4849F2
:102EF000049002F029FE0590216804F0CFFB2060C9
:102F000035490020085E002801DB014600E041420F
:102F1000FF22F532914211DB109802F00FFF03906F
:102F200039480168039804F0FFFB3949049002F026
:102F30000BFE0590296804F0B1FB286025490020AC
:102F4000085E002801DB014600E04142FF22F53225
:102F5000914211DB109802F0F1FE03902B480168BA
:102F6000039804F0E1FB2A49049002F0EDFD05907E
:102F7000316804F093FB3060306802F0BBFD002242
:102F800001239B070391029003F022FE0591049018
:102F900002F03CFC80B20790206802F0ABFD0022FA
:102FA00001239B070391029003F012FE0591049008
:102FB00002F02CFC80B20990286802F09BFD0022F0
:102FC00001239B07039125E0E4000020E600002098
:102FD000E80000207E0100207C0100207A01002012
:102FE00000010020080100200A0100200C0100203F
:102FF00004010020FC000020EC0000209A9999991F
:1030000099992340F0000020F4000020F8000020EF
:1030100000007A44029003F0DBFD0591049002F079
:10302000F5FB81B20891089909984118079808188A
:1030300080B20690069802F036FC0391029004F0EC
:10304000D5FA0591049002F0E1FB38800BB0F0BD99
:1030500070B50446A168E06804F020FBA060216917
:10306000A06804F01BFB05462946A06802F06CFD31
:1030700060616168206804F0AFFB0646616904F096
:1030800053FB0546616804F009FB20607F20C00502
:10309000616904F0A1FB0546A16804F045FBA0604E
:1030A0002068606070BDF8B507460C4615461E46A0
:1030B000002000906B46012244213846FFF762FA57
:1030C00000AB0133012243213846FFF75BFA684623
:1030D000008820806B46012246213846FFF752FACD
:1030E00000AB0133012245213846FFF74BFA684611
:1030F000008828806B46012248213846FFF742FAB3
:1031000000AB0133012247213846FFF73BFA6846FE
:1031100000883080F8BD10B52A4B00229A5E002A44
:1031200001DB134600E053427D24E400A34217DC98
:10313000254B0021595E002901DB0B4600E04B4284
:103140007D24E400A3420BDC204B0020185E002805
:1031500001DB034600E043427D24E400A34205DD99
:103160007D2040011A490860012010BD0020FCE7C5
:10317000F0B585B007460C460020049004AB012250
:1031800042213846FFF7FEF904AB01330122412109
:103190003846FFF7F7F96A461020105EFF215531D7
:1031A00001F049FE019002F076FB0546094A0A4B00
:1031B00002F0A2F80391029002F028FB207005B003
:1031C000F0BD00007A0100207C0100207E0100207B
:1031D00054000020A4703D0AD743424070B5044615
:1031E0000D46FF210131FE4801F017FE0220FD4986
:1031F00008806000401CFA49087008464570F9488C
:103200000188F748FFF7A0F870BD73B50D466C460E
:10321000FF210131F24801F000FE0320F14908804E
:10322000684600884000F04908430005010C009101
:10323000EB4885702078EA494870641C2078087053
:10324000E8480188E648FFF77FF87CBD31B56C4659
:10325000FF210131E24801F0E0FD0320E14908804F
:103260006846008840000121C90208430005010C9E
:1032700000912078DA494870641C20780870D94899
:103280000188D748FFF760F8D548807838BD10B579
:103290000446FF210131D24801F0BFFD0220D1498F
:1032A00008806006000ECE490870CE480188CC48E0
:1032B000FFF74AF8CA48407810BDFFB581B005460F
:1032C0001E46002407212A20FFF788FF2021262000
:1032D000FFF784FF07E02620FFF7D9FF20210840F1
:1032E000202800D100E0F6E700BF08211720FFF7F3
:1032F00075FF94211820FFF771FF95212E20FFF70D
:103300006DFF50213B20FFF769FF07213D20FFF7AC
:1033100065FF40213E20FFF761FF4B2040018542C1
:103320000DDDB24885420ADA4B214901681A0521B0
:1033300001F081FD401E0001C01C85B200E00325A4
:103340001F2E05DCF006010EA948FFF75EFF08E01E
:10335000A748FFF77BFF47077F0F3946A448FFF7D1
:1033600054FFE9B201204002FFF74FFF0121A048BE
:10337000801EFFF74AFF74219D48401EFFF745FF5E
:10338000062181208000FFF740FF10219848C01CD3
:10339000FFF73BFFEC219648001DFFF736FF8C211D
:1033A0004120C000FFF731FF002191483A30FFF77C
:1033B0002CFF20218E484A30FFF727FF07212520C8
:1033C0000001FFF722FFC02189484E30FFF71DFFA3
:1033D000012187484F30FFF718FF85485030FFF72D
:1033E00035FFF02108400746394681485030FFF745
:1033F0000CFF00217E485630FFF707FF80217C48F4
:103400007030FFF702FFE5219D208000FFF7FDFEF1
:10341000132177487230FFF7F8FE072174487330A4
:10342000FFF7F3FE02AC2178641C0120FFF7D6FE03
:1034300021780220FFF7D2FE03AC2178641C032020
:10344000FFF7CCFE21780420FFF7C8FE00213220D0
:10345000FFF7C4FE02212A20FFF7C0FE0421362018
:10346000FFF7BCFE00213620FFF7B8FE0221362010
:10347000FFF7B4FE0120FEF7F6FF01213620FFF72B
:10348000ADFE0120FEF7EFFF00213620FFF7A6FE7C
:1034900005B0F0BDF7B50C4616466D46FF2101316B
:1034A0004F4801F0BAFCA01C4E49088068460088CD
:1034B00040000121C90208430005010C0091287851
:1034C000474948706D1C2878087046480188444870
:1034D000FEF73AFF22464249891C304601F040FC83
:1034E0000020FEBDF7B50C4616466D46FF210131A2
:1034F0003B4801F092FCA01C3A49088068460088CD
:103500004000394908430005010C009128783449EE
:1035100048706D1C28780870224631463048801C5F
:1035200001F01EFC2F4801882D48FEF70DFF0020FA
:10353000FEBDF7B50E4615466C46FF2101312D48FC
:1035400001F06BFC0B202B490870084600784019ED
:103550004870012088708820C8702748007808715A
:1035600025480078401C244908700120FFF78FFE91
:10357000204948710220FFF78AFE1E49887100BF6A
:103580002078C871641C2078087208464079487217
:103590000846807988720320FFF779FE1549C872C2
:1035A0000420FFF774FE134908730978891C114A37
:1035B00088182A46314601F0D3FB00BF0D484078F9
:1035C000811C0C4A0020FFF78DFFFF2101310B48C1
:1035D00001F023FC07484078811C084A00200FE0D6
:1035E000040300200E01002001080000B5090000BE
:1035F0000302000004050020100100200407002041
:10360000FFF748FFA7484078821CA749A54801F06A
:1036100057FB0028D2D101211B20FFF7DFFDFEBDA3
:10362000F8B505460C4616461F46FF2101319F4856
:1036300001F0F3FB03200002FFF708FE09309B4A6C
:103640000146009003200002FFF724FF974800780E
:10365000401C207022789549284601F081FB934850
:1036600000780D38287020789049085C30702078F8
:10367000401C085C3870F8BD70B504460D462978CA
:10368000204601F0CAFB03200002FFF7DFFD0646DB
:1036900009362246314603200002FFF7FBFE207860
:1036A000801C287070BD70B504460D46FF20813027
:1036B000204001113620FFF791FD6106490E3520AB
:1036C000FFF78CFD6805410F7948FFF79EFDE9B2D1
:1036D0007748401EFFF799FD70BD10B540210D20C1
:1036E000FFF77CFD42211220FFF7DDFF002170482B
:1036F0003230FFF78AFD18216D485430FFF785FD01
:1037000025200001FFF7A2FD102188430446214631
:1037100025200001FFF779FD0D20FFF7B8FD80217E
:103720008843044621460D20FFF758FD3520FFF75A
:10373000AEFD80210843044621463520FFF74EFDAB
:1037400010BD10B500BF3120FFF7A1FD402108409A
:103750004028F8D10D20FFF79AFD80210843044648
:1037600021460D20FFF73AFD25200001FFF76EFDF1
:10377000102108430446214625200001FFF745FD9E
:1037800010BD70B504461F2C06DCE006010E48484B
:103790002038FFF73AFD0AE045482038FFF756FD8C
:1037A00045076D0F294642482038FFF72EFD404857
:1037B0003030FFF74BFDF0210840054629463C48D4
:1037C0003030FFF722FDE5219D208000FFF71DFD31
:1037D00070BD10B50446012C0ED10121344836309D
:1037E000FFF713FD02213248C01DFFF70EFD022135
:1037F0003620FFF7F3FC11E001213620FFF7EEFC45
:1038000000213620FFF7EAFC00212948C01DFFF700
:10381000FCFC002126483630FFF7F7FC10BD70B5E0
:103820000446012C15D12021FFF7EFFC3820FFF7CB
:103830002EFD04210843054629463820FFF7CEFC1B
:1038400002213620FFF7CAFC01211B20FFF7C6FC2E
:1038500027E03820FFF71BFD042188430546294651
:103860003820FFF7BBFC02212A20FFF7B7FC042118
:103870003620FFF7B3FC00213620FFF7AFFC022112
:103880003620FFF7ABFC0120FEF7EDFD01213620CD
:10389000FFF7A4FC0120FEF7E6FD00213620FFF72C
:1038A0009DFC70BD040500200407002004060020D4
:1038B00023020000F8B505460E461446F848007885
:1038C00008218843F649087008464038C0694039E5
:1038D00088610120F3490870224631462846FFF7E7
:1038E00028FE23E0EE4800780821084008281DD172
:1038F0003120FFF7CCFC09280FD1002C00D0002488
:103900000020E94908700D20FFF7C1FC01210843A0
:10391000074639460D20FFF761FCE1480078082191
:103920004840DF4908700020DE490870DD48007813
:103930000028D7D1F8BD10B5FF20DC490870FE2063
:103940004870DB48007888700320C8700020087138
:10395000D84800784871D848007888710120C8712B
:10396000D64800780872D6480078487203208872DA
:10397000D4480078C872D44800780873042048738B
:10398000D24800788873D2480078C873052008743C
:10399000D04800784874D048007888740620C874ED
:1039A000CE4800780875CE4800784875072088759D
:1039B000CA480078C875CA4800780876C9480478AB
:1039C00004E00020B9490855601CC4B2802CF8DB23
:1039D000C448008882B2B549C348FFF76BFF10BDE9
:1039E000C248007BFF2805D1C048407BFE2801D19A
:1039F000012070470020FCE7F3B581B00C4600269B
:103A000000253020FFF743FC90282FD1B84BB94A4E
:103A1000B949BA48FFF704FEB7480078002825D016
:103A2000B5480078B64908700020B3490870B4481A
:103A30000278B249AD4801F093F9B1480278AB4938
:103A4000019801F08DF9AE4800782070FFF7C8FFAB
:103A50000546002D0AD101260D20FFF718FC012193
:103A60000843074639460D20FFF7B8FB8E4800781B
:103A7000012804D03020FFF70AFC802827D1A14B71
:103A80009C4A9D499D48FFF7CBFD9B480078002844
:103A90001DD0994800789A4908700020964908700E
:103AA000974802789549914801F05AF9944802786C
:103AB0008E49019801F054F9914800782070FFF781
:103AC0008FFF0546002D02D1012677490870F0B21C
:103AD000FEBD70B5002500243020FFF7D8FB9028EC
:103AE00026D1834B834A84498448FFF799FD824855
:103AF000007800281CD08048007881490870002098
:103B00007D4908707E4802787C49784801F028F9A0
:103B1000FFF766FF0446002C0AD001250D20FFF7B1
:103B2000B6FB01210843064631460D20FFF756FB40
:103B30005D480078012804D03020FFF7A8FB8028DA
:103B40001FD1704B6B4A6C496C48FFF769FD6A489E
:103B50000078002815D0684800786949087000206E
:103B600065490870664802786449604801F0F8F8D1
:103B7000FFF736FF0446002C03D0012500204A49F8
:103B80000870284670BD10B55D4802785B495748FB
:103B900001F0E6F800205C4908606DE05A480068D2
:103BA00001281FDC584800684100401812304F4976
:103BB000095C554800684200801811304B4A105C7F
:103BC000000201431046807B182250434F4A82185E
:103BD0004D4800684300C0181030444B185C40004A
:103BE000115244E048480068022840D13F48017B18
:103BF000807B18225043454A801881803B48C17B16
:103C0000807B18225043414A8018C1803748817C0C
:103C1000807B182250433D4A801801813348417D02
:103C2000807B18225043394A801841812F48417BBC
:103C3000807B18225043354A801881812B48017CB3
:103C4000807B18225043314A8018C1812748C17CAB
:103C5000807B182250432D4A801801822348817DA1
:103C6000807B18225043294A801841820AE0264866
:103C70000068401C244908601C48C07B2249096830
:103C800088428BDC00BF10BD70B504460D46042190
:103C9000204601F0C2F8A87A2070E87A607070BD02
:103CA000940000206F01002070010020290C0020EA
:103CB00068010020A0010020A10100208601002051
:103CC00087010020D8010020DC010020D90100205C
:103CD000DD010020DA010020DE010020DB010020F0
:103CE000DF0100206E010020FFFF0000A90C002072
:103CF0006C0100206B01002014010020A90B0020A2
:103D00006A0100206D010020240100200408002029
:103D100070B504460D460421204601F07EF8A879CE
:103D20002070E879607070BD70B504460D460421BE
:103D3000204601F072F8287A2070687A607070BDB1
:103D400070B504460D460421204601F066F8287936
:103D500020706879607070BD70B505460C4604210E
:103D6000284601F05AF8E078287070BD70B5044616
:103D70000D460421204601F050F868782070A8789C
:103D8000607070BDF8B505460E46174604212846FA
:103D900001F043F8002404E020460C30305C285544
:103DA000641CBC42F8DBF8BD70B505460C46042126
:103DB000284601F032F82078287070BD0146087B53
:103DC000002804DB087B042801DC01207047002068
:103DD000FCE700206149086009E0002060495F4A73
:103DE000126888545D480068401C5C4908605B4864
:103DF00000680628F1DB7047FFB505460C461E46F5
:103E000000230020554908600AE00020C0435349C0
:103E100009684900685251480068401C4F490860D1
:103E20004E4800680A28F0DB00204C4908600AE090
:103E3000FF204A49096849004A4A505247480068E9
:103E4000401C46490860454800680328F0DB6000D4
:103E500044490E52FFF7BDFF00204049086030E0A2
:103E600001204149086061003E4A515AFF2916D09D
:103E70003A490968182251433C4A891862008A5A13
:103E80000299501A002801DB014600E0414262001D
:103E9000344FBA5A914202DD00203349086032485B
:103EA0000068012808D12E482C490968405C401C54
:103EB0002B492A4A1268885428480068401C274920
:103EC0000860264800680628CADB002023490860ED
:103ED00011E0234821490968405C002806DD1F489D
:103EE000008881B2581C400029525B1C1B480068A6
:103EF000401C1A490860194800680628E9DB2B8035
:103F0000D8B204B0F0BD0020144908600AE00020D7
:103F1000124909684900164A505210480068401C6E
:103F20000E4908600D4800680628F0DB704700283D
:103F300002D001280BD104E0012149030D4A11816F
:103F40000AE0012149030B4A203A916104E0012172
:103F50004903084A118100BF00BF704724010020B7
:103F60003C010020420100201C0100200408002028
:103F7000940800202004004800B589B01B21684641
:103F800001700221417001218170FCF771FD9E4892
:103F9000FDF71AFB4B20C001019000200290039016
:103FA000049006900C20059001214804FDF737F895
:103FB00001218803FDF741F801220921C806FCF719
:103FC000DEFA01220A210920C006FCF7D8FA0320F4
:103FD00040020790022108A80170032141700021CE
:103FE00081700121C17007A90920C006FCF73EFAC3
:103FF00001A98548FDF704FB01218348FDF789FBF2
:10400000012282498048FDF715FD09B000BD70B559
:1040100005460C467E480078002801D0002070BD7F
:1040200001207B490870224629467A4800F098FE14
:1040300000207949087079490C700122784972484A
:10404000FDF7F8FC00BF724800780128FBD0012082
:10405000E5E700B589B01C21684601700321417075
:1040600001218170FCF704FD6E48FDF7ADFA4B208D
:10407000C0010190002002900390049006900C2053
:10408000059001214804FCF7CAFF01214804FCF710
:10409000E2FF012202210920C006FCF770FA01228A
:1040A00003210920C006FCF76AFA0C2007900221C0
:1040B00008A8017003214170002181700121C170A5
:1040C00007A90920C006FCF7D1F901A95548FDF759
:1040D00097FA01215348FDF71CFB01224B49514837
:1040E000FDF7A8FC09B000BD70B505460C46484870
:1040F0000078002801D0002070BD012044490870DC
:1041000022462946434800F02BFE00204249087011
:1041100042490C70012242494248FDF78BFC00BF26
:104120003B4800780128FBD00120E5E700B589B0C5
:104130001C21684601700321417001218170FCF748
:1041400097FC3848FDF740FA4B20C0010190002051
:1041500002900390049006900C20059001214804E1
:10416000FCF75DFF01214804FCF775FF01220221E5
:104170000920C006FCF703FA012203210920C0062A
:10418000FCF7FDF90C200790022108A8017003211B
:104190004170002181700121C17007A90920C0066A
:1041A000FCF764F901A91F48FDF72AFA01211D480F
:1041B000FDF7AFFA012215491A48FDF73BFC09B09B
:1041C00000BD70B505460C4611480078002801D0A6
:1041D000002070BD01200E490870224629460D4876
:1041E00000F0BEFD00200C4908700C490C70012243
:1041F0000B490C48FDF71EFC00BF0548007801285C
:10420000FBD00120E5E70000003801400501050072
:1042100060010020AC0800205C0100205A01002051
:104220000701070000440040FFB595B004461D4655
:104230001F9F1E9E0021715E0022AA5E881801F059
:104240002AFB002201239B070191009001F084F8D2
:10425000059104900020285E01F01DFB039102905F
:10426000059B049A01F055F80791069001F098FA21
:1042700000B21490002220998A5E0021795E5018C5
:1042800001F009FB002201239B070191009001F03E
:1042900063F8059104900020385E01F0FCFA039168
:1042A0000290059B049A01F034F80791069001F002
:1042B00077FA00B21390002222998A5E0023219996
:1042C000CB5ED01801F0E7FA002201239B07019191
:1042D000009001F041F80591049000202199085EBA
:1042E00001F0D9FA03910290059B049A01F011F8AC
:1042F0000791069001F054FA00B212900022B25ECB
:104300000021695E501801F0C6FA002201239B07C4
:104310000191009001F020F8059104900020305E9A
:1043200001F0B9FA03910290059B049A00F0F1FFA5
:104330000791069001F034FA00B211900022209902
:104340008A5E0021795E501801F0A5FA002201234F
:104350009B070191009000F0FFFF05910490002061
:104360002099085E01F097FA03910290059B049A48
:1043700000F0CFFF0791069001F012FA00B2109002
:10438000002222998A5E00232199CB5ED01801F089
:1043900082FA002201239B070191009000F0DCFFCC
:1043A0000591049000202299085E01F074FA0391AF
:1043B0000290059B049A00F0ACFF0791069001F073
:1043C000EFF900B20F90119841421498081800B20A
:1043D0000E900E9801F05FFA002201239B070591D1
:1043E000049000F0B9FF0791069001F0D9F900B2EE
:1043F0000E90109841421398081800B20D900D9835
:1044000001F049FA002201239B070591049000F076
:10441000A3FF0791069001F0C3F900B20D900F9829
:1044200041421298081800B20C900C9801F033FA2F
:10443000002201239B070591049000F08DFF079156
:10444000069001F0ADF900B20C900D9A0E998A1801
:104450000C99501801F072FC0B900B9801F04AFB7C
:104460000022F84B0591049000F076FF079106902A
:1044700000F088FD0B900E9801F060FC014607905B
:104480000B9801F061FB0A900D9801F057FC014672
:1044900007900B9801F058FB09900C9801F04EFC26
:1044A000014607900B9801F04FFB08900021715EC8
:1044B0000022AA5E881801F0EEF9002201239B0772
:1044C0000191009000F048FF059104900020205ECB
:1044D00001F0E1F903910290059B049A00F019FFA5
:1044E0000791069001F05CF900B22080002220992B
:1044F0008A5E0021795E501801F0CDF90022012377
:104500009B070191009000F027FF05910490002087
:104510001699085E01F0BFF903910290059B049A79
:1045200000F0F7FE0791069001F03AF902B21698F2
:104530000280002222998A5E00232199CB5ED01846
:1045400001F0A9F9002201239B070191009000F0DE
:1045500003FF0591049000201799085E01F09BF974
:1045600003910290059B049A00F0D3FE07910690F8
:1045700001F016F902B2179802800020205E01F0C7
:10458000DDFB06900A9903F0CFF8079001F08CFB51
:1045900000B220800020205E01F0D0FB0690099937
:1045A00003F0C2F8079001F07FFB00B220800020EA
:1045B000205E01F0C3FB0690089903F0B5F8079060
:1045C00001F072FB00B2208019B0F0BD70B58EB062
:1045D00005460E460020285E01F05DF90391029029
:1045E0000020305E01F057F901910090039B029A80
:1045F00002F0E6F90022944B0591049001F056F97F
:10460000924A934B0791069000F0A6FE00228E4B33
:104610000991089000F070FE00228E4B0B910A90D9
:1046200000F077FE0D910C9001F0BAF8044601E01D
:10463000FF346934002CFBDB01E0FF3C693CFF20C8
:1046400069308442F9DC20460EB070BDF0B599B0F7
:1046500005460E461F460020305E01F01CF97E4ADA
:104660007E4B1191109000F077FE1391129000F0A4
:1046700089FC15900020285E01F00DF9764A774BF1
:104680001191109000F068FE1391129000F07AFCE6
:104690001490159801F02EFA0991089002F058FF35
:1046A0000D910C90149801F025FA0591049002F0F8
:1046B00043FA0991089000201F99085E01F0EBF879
:1046C00007910690099B089A01F0F0F80B910A9067
:1046D0000D9B0C9A01F0EAF811911090149801F0DA
:1046E00009FA0591049002F033FF0991089015989A
:1046F00001F000FA0191009002F02AFF0591049068
:1047000000201E99085E01F0C6F803910290059BF7
:10471000049A01F0CBF807910690099B089A01F0E2
:10472000C5F80D910C90159801F0E4F905910490ED
:1047300002F002FA099108900020385E01F0ABF80F
:1047400007910690099B089A01F0B0F80B910A9026
:104750000D9B0C9A00F0D0FD0F910E90119B109ABA
:1047600000F0D7FD1391129000F00CFC17901498F4
:1047700001F0C0F90991089002F0EAFE0D910C9049
:1047800000201F99085E01F086F80B910A900D9B9E
:104790000C9A01F08BF811911090149801F0AAF97D
:1047A0000991089002F0C8F90D910C9000201E9913
:1047B000085E01F070F80B910A900D9B0C9A01F0C5
:1047C00075F80F910E90119B109A00F095FD1391C2
:1047D000129000F0D7FB169021480CC800201A490F
:1047E00000F0BAFD0D910C90179801F083F9099132
:1047F0000890169801F07EF907910690099B089A97
:1048000002F0DEF80B910A900D9B0C9A01F04EF825
:104810000022144B0F910E9000F07BFD0022114BF3
:104820001191109000F075FD1391129000F0B8FFF7
:104830000446002C01DDFF3C693CFF34693420460E
:1048400019B0F0BD0000084000806640F1D4C853A4
:10485000FB21094000E07040F6285C8FC2A54C4067
:10486000C8010020008056407047012803D1410351
:10487000E94A118100BF00BF7047012804D14103FC
:10488000E54A203A916100BF00BF704700B585B08E
:1048900001214804FCF7C3FB01210846FCF7CDFBCE
:1048A000FF2001300390002168460174C17403A900
:1048B0000920C006FBF7DAFD08210020FCF748FEBE
:1048C000FF20013001900021684601720C214172E5
:1048D0000121817201A8FBF715FD072168460170CF
:1048E0000021417001218170FCF7C2F805B000BDC4
:1048F0001CB5012103204004FCF791FB0320400379
:1049000000900121684601710321417100218171EC
:10491000C1716946C0482038FBF7A8FD012080031B
:10492000BD4920398861401088611CBD70B50546BD
:104930000E461446FFF7DCFFFFF7A8FFFDF772FDF8
:10494000FFF71AFBFFF785FBFDF78EFCFDF7D6FDA1
:104950000023224631462846FEF7AFFCAF490C70D3
:104960000120FFF78AFFFF20F530FDF77CFD0120D5
:10497000FFF77BFFFF20F530FDF775FD0120FFF706
:104980007CFFD020FEF718FA1820FDF7EFFEFEF7A7
:1049900041F8A2480078A2490870A2490870012095
:1049A000487002209E4948700120FFF75EFF70BDED
:1049B000FFB581B005460E461746002402E00020F0
:1049C0002855641C284600F0A9F9A042F7D8002415
:1049D00003E03819305C2855641C04988442F8DBE5
:1049E00005B0F0BD10B586B004468F4B8F4A904994
:1049F000D020FEF758FB8F4B8F4A90491820FDF7C7
:104A0000D6FE8E490020085E8D4900228A5E9042C3
:104A100004DD8A480021415E8948018087490020E1
:104A2000085E884900228A5E904204DA83490020A9
:104A3000085E8449088080490020085E824900227F
:104A40008A5E904204DD7C490020085E7E49088031
:104A500079490020085E7D4900228A5E904204DA8E
:104A600075490020085E7949088072490020085E77
:104A7000774900228A5E904204DD6E490020085E7C
:104A8000734908806B490020085E724900228A5EE3
:104A9000904204DA67490020085E6E4908806D483C
:104AA0006B496A4A684B01930292039104906548EE
:104AB000634B604A604900906048FFF7B5FB5E4970
:104AC0005E48FFF783FD6449086008460078634943
:104AD0000870614800880004000E614908705E4853
:104AE0000068206006B010BD70B505460C46012276
:104AF00002214C48FDF7C9FF0A20FDF7B4FCFDF781
:104B0000F3FF022211464648FDF7BFFF0A20FDF7DA
:104B1000AAFC012028700220207070BD00B585B06D
:104B200050485149514A524B0193029203910490CB
:104B30005048514B514A524900908420FDF78DFE58
:104B400005B000BD4F4800884F4948804C48007868
:104B500088804A480078C8804748007808814248E1
:104B60000078488143480078888141480078C881AE
:104B70003E48007808823B480078488236480088E2
:104B8000088042480078888241480078C88270478F
:104B900010B5FEF79EFF002801D0FEF7F4FF3D4858
:104BA0000068012829D12C48FFF71CFF3448007801
:104BB0003549888031480078C8802F4800780881BE
:104BC0002948007848812B48007888812848007857
:104BD000C8812648007808822248007848821E480A
:104BE0000088088029480078888229480078C8828F
:104BF000FEF7A1FE00202749086010BD10B5022075
:104C00000549203988610120FDF72DFC0220024969
:104C10000881FEF796FD10BD2004004868010020C1
:104C2000D2010020D0010020840100208201002058
:104C3000800100207801002076010020740100200E
:104C4000A2010020A4010020A6010020A80100204C
:104C5000AA010020AC01002098010020A101002041
:104C6000A0010020DF010020DB010020DE01002088
:104C7000DD010020DC010020DA010020D901002044
:104C8000D8010020C001002094080020D401002099
:104C9000D50100204800002030B505460B462A46C5
:104CA0001C781078521C5B1C002801D0A042F7D061
:104CB000002C03D0002802D06D1CEFE7284630BD41
:104CC000034610B50B439B070FD1042A0DD308C828
:104CD00010C9121FA342F8D018BA21BA884201D9CC
:104CE000012010BD0020C04310BD002A03D0D3070F
:104CF00003D0521C07E0002010BD03780C78401C44
:104D0000491C1B1B07D103780C78401C491C1B1B3A
:104D100001D1921EF1D1184610BD000030B5441CDF
:104D200003E00178401C00290DD08107F9D10B4B1D
:104D3000DD0104C8D11A91432940FAD0001B0A06AC
:104D400003D0C01E30BD001B30BD0A0401D0801E40
:104D500030BD0902FCD0401E30BD00000101010140
:104D6000F8B5042A2CD3830712D00B78491C0370A2
:104D7000401C521E83070BD00B78491C0370401C4B
:104D8000521E830704D00B78491C0370401C521E2E
:104D90008B079B0F05D0C91ADF002023DE1B08C933
:104DA0000AE0FBF7D1F9F8BD1D4608C9FD401C46D5
:104DB000B4402C4310C0121F042AF5D2F308C91ABC
:104DC000521EF0D40B78491C0370401C521EEAD4CA
:104DD0000B78491C0370401C012AE4D40978017047
:104DE000F8BD01E004C0091F0429FBD28B0701D5DF
:104DF0000280801CC90700D00270704700290BD0C8
:104E0000C30702D00270401C491E022904D3830745
:104E100002D50280801C891EE3E70022EEE7002213
:104E2000DFE7002203098B422CD3030A8B4211D304
:104E300000239C464EE003460B433CD4002243082B
:104E40008B4231D303098B421CD3030A8B4201D31B
:104E500094463FE0C3098B4201D3CB01C01A5241B3
:104E600083098B4201D38B01C01A524143098B4203
:104E700001D34B01C01A524103098B4201D30B01EC
:104E8000C01A5241C3088B4201D3CB00C01A524111
:104E900083088B4201D38B00C01A524143088B42D6
:104EA00001D34B00C01A5241411A00D2014652416F
:104EB000104670475DE0CA0F00D04942031000D38E
:104EC0004042534000229C4603098B422DD3030AE3
:104ED0008B4212D3FC22890112BA030A8B420CD3F3
:104EE000890192118B4208D3890192118B4204D31C
:104EF00089013AD0921100E08909C3098B4201D39C
:104F0000CB01C01A524183098B4201D38B01C01AD5
:104F1000524143098B4201D34B01C01A524103094C
:104F20008B4201D30B01C01A5241C3088B4201D3FB
:104F3000CB00C01A524183088B4201D38B00C01AA8
:104F40005241D9D243088B4201D34B00C01A52417F
:104F5000411A00D20146634652415B10104601D30C
:104F60004042002B00D54942704763465B1000D396
:104F7000404201B50020C046C04602BD70477047A0
:104F8000704700000246C80FC00781434B0030B590
:104F90004B405B009B0D20D01923DB06C918012371
:104FA0001B05994220DB0324A40704251346AB40CC
:104FB0000BD3002B04D1EB0613409B00E34204D437
:104FC00001246407002312195941FF231B0599424C
:104FD0000BD2C9000143500F09E0CB0204D50143B5
:104FE0000803024305D0054830BDFF21C905084329
:104FF00030BD084607210905884330BD0000C07F49
:10500000F0B50C46871A9C410D46861A9D4103D285
:10501000C01BA141D21963410D0D1F0DC94EEC1BE0
:10502000AE435CD07F057F0D0026002F51D02D05AB
:10503000AC46A943DD020123ED0A1B051D432023D5
:105040001B1B24D41746E740381871412F46E74010
:10505000CC199D402818314661410C0D27D161447F
:105060009A4013D50023401C594152000ED14008EC
:10507000400001224B005205D34207D305204007D0
:10508000C14201D5B04900E0B0493046F0BD6B00E7
:10509000002A00D001229A181F23203C1B1B01D597
:1050A000002302E0E540281871410C0DD7D00124FF
:1050B00024050919C407CD0740084908E40F28430F
:1050C0006144002CD5D00024401C61419A40D0D1CD
:1050D000CDE76A05520DD9D1C90FC907D5E79C4D57
:1050E0004E00002801D0012400E0002434195F00A4
:1050F000002A01D0012600E00026BE19954FAC42DF
:105100000CD8AE420AD8B44206D001256D05EC4257
:10511000BCD010461946F0BD9942FCD0002039465B
:10512000F0BDF0B51FB40C460F46811A9F412546CD
:10513000861A9D4106D20125ED076F40401ABC41F9
:1051400052187B41210D1E0D8D1BAC467D4D8D43AC
:105150007ED075056D0D7CD00D05AE46AC431B03AE
:105160001B0B794D52429D41202366469B1B14D355
:105170001746F740381800260090744160462F46C5
:105180000741E41900989D402818664116D47146DD
:1051900071189A4025D5012320E093182A466A41C8
:1051A0005200002B00D0521C1E23203E9B1B002BC4
:1051B00061DD3541EE1728186641E8D500187641C3
:1051C0005B1C9A4000D3401C4B05F3181524E340A8
:1051D00010D3002B52D071467118D30FC01802D3D0
:1051E000491C05B0F0BD0123DB079A42F9D1400804
:1051F0004000F6E701225205B21801D1002853D031
:105200000123CC0ADB029943891E002A08D1020C33
:1052100003D0020C0004103902E0024600202039BD
:105220000023550B05D112020823550B01D1520161
:105230000D23550C01D112011B1DD50C01D192007B
:105240009B1C150D01D152005B1C2025EE1A01E0BC
:105250002CE022E00546F54015439840CA1AE107C4
:1052600069181305C918002ABBDA0320400708187B
:10527000C10FC9070FE071466118B2E7F107400896
:105280000843711071444A000CD001235B059A4217
:10529000A7D2C90FC9070020A3E74905490D26D1A8
:1052A000002001E00028F4D100219AE7284D660093
:1052B000002801D0012100E0002171185F00002AC0
:1052C00001D0012600E00026BE19224FA94210D8C5
:1052D000AE420ED8B14208D001256D05E94206D094
:1052E0001946A802414010467BE79C4201D0214666
:1052F00077E70020394674E710B50C465C4005D5C9
:105300000124E4076340FFF70CFF10BDFFF778FEB0
:1053100010BD30B40C465C4004D50124E407634062
:1053200030BC6DE630BCFCE670B50124E40761409A
:105330000D465D4002D4FFF763FE70BD6340FFF78A
:10534000F0FE70BDFF0700000000F0FF0000F07FDE
:105350000000E0FF0000F87FF0B5F94D0C091E09D0
:105360002C402E402F468BB0A7437DD0B543FCD0B8
:10537000002E7AD0002CFCD00D465D40ED0F254369
:10538000AC1BFF25AD0464190894C502440DC90285
:105390002143500DDC0204430120C00701430443B4
:1053A000D2020191200C110C00958C460104234679
:1053B0008B430A9161460904E24D8A430991010A2F
:1053C0007D4449198039097805464D4301266D18F9
:1053D000F605751B6943C90C640B891C4C436418A2
:1053E000B5012C1B250C2E04B4434C434D43210C1A
:1053F000691889090591009DE90701D00121C907B4
:1054000004912C4601996708CD072F434C08059D50
:10541000E10B4D432D0C29466646754302950D461A
:1054200045432E46029D7D1BB44100950D465D43CC
:1054300001942C0C2F040D465543AE462D0C3D43D4
:10544000029503947546049C2D04641B049406D2B3
:10545000029C039D641C002675410395029401ACD7
:1054600070CC009F7D1B01E03EE162E1B441090484
:105470000095079101940599A4086143090C0C4615
:105480004443650BE7040C4666467443A646640B2A
:105490003C43039502947446049DE4042C1B04943D
:1054A00006D2029C039D641C00267541039502945C
:1054B00001AC70CC009F7D1BB44101940C465C4351
:1054C0000095650FE7000C465443A646640F3C4325
:1054D000039502947446049DE4002C1B049406D2A8
:1054E000029C039D641C002675410395029401AC47
:1054F00070CC009F7D1BB441AE09AF06049DC9006E
:10550000AD092F43049DA406AD060495079D3443C1
:1055100069180791059DE10B4D432D0C2946664600
:10552000754302950D4645432E46029D7D1BB441B1
:1055300000950D465D4301942C0C2F040D465543F8
:10554000AE462D0C3D43029503947546049C2D04F4
:10555000641B049406D2029C039D641C00267541C2
:105560000395029401AC70CC009F7D1BB441019463
:105570008C050694079C890A611800950791019C87
:105580000599A4086143090C0D464543680BEF04D7
:105590000D46644665436C0B3C43049FED047D1B44
:1055A000AC4602D20025641C6841009E019D371B59
:1055B00085410846584301950C46460FC5005443A3
:1055C000600F28436546E4002C1B02D20025401CD6
:1055D0006E41019D3F1AB5412846BD09800628430A
:1055E0008446A009BF064E020699A4067618074312
:1055F000079D002068410A99079019430020099BE4
:1056000000906046FF1913434041E20F64003A43A3
:10561000A4460446D71A8C41A04203D90120009029
:1056200020463A46C70F941840416246D20F2243A3
:10563000644664000494009CBE466400D71AA446E5
:10564000044602978C417746002F01D1A04204D92D
:105650006046401C8446029A2046C40FA646941811
:105660004041049A0546D20F224364466400D31A8F
:105670008D417146002901D1A84202D928461A4617
:10568000641C10430122002800D016436102002050
:10569000079B891904465C410223002C02DB491850
:1056A00013466441089DCE0A2D145D194B0567050C
:1056B000E10A2C050D1908993E43C9076940002BE2
:1056C00008D0934006D30022761C5141002B01D113
:1056D000760876001C4A002D43DB154241D0AA43D0
:1056E0003FD030460BB0F0BD06180D464D41174C6B
:1056F0007642AC411AD395181C465C41134A6D4260
:10570000A24113D3012252054C00D4420AD15C00BD
:10571000D4420BD04B4002D592021143E2E749003C
:105720004908DFE75940C90FC90718E000200849B8
:10573000D8E7054801420DD10342F7D0F2E7000057
:105740000000FF07E42400000000F07F0000E0FFFD
:105750000000F87F114859400143C0124140002029
:10576000C0E70123089A9B069A4205DC03225207F0
:105770008918C90FC907B5E7052252078918074AD2
:105780001143D2125140ADE770B515461C46024692
:105790000B4628462146FFF7DFFD70BDFFFFFF7F68
:1057A00030B50346CA02400D1043164D164C0A157B
:1057B00002D02043002A06DBAA1A002A12DDD040BC
:1057C000FF2A0BDC30BD5205520D01D140004008CC
:1057D000AA1A07D4D0404042FF2A01DD002030BD84
:1057E0000028FCDD4A00002B01D0012000E0002051
:1057F000101801225205D042F0D8C817C0436040AB
:1058000030BD00001E040000000000800346CA02F4
:10581000400D10B510430A1504D00124E4072043BD
:10582000002A05DB0A4CA21A04D4D040FF2A00DD6E
:10583000002010BD4A00002B01D0012000E0002014
:10584000101801225205D042F2D8C817C04310BD2B
:105850001E0400001F22030C02D10F22000402D0FC
:10586000030E03D004E00020014670470002083A0E
:10587000030F01D10001121F830F01D18000921E7E
:10588000002801DB4000521E120551184205C012CB
:10589000411810467047C10FC90700D0404201228D
:1058A00092071143D6E701218907D3E7F0B58B4C66
:1058B0000F09254689B0BD437BD01D092646AE435E
:1058C000FAD00E465E402740F60F3E43254071D089
:1058D00024012142FBD0FF24AD19A4042D1B039504
:1058E00001252D05DB02DB0AC9022B43C90A294326
:1058F0001E010901040F130F050121431701880B35
:10590000820391432D098C46A90B1E438A039543BC
:10591000B30B9A0396433F09BA0B9403A74302962D
:105920002E467E430497B6464E19D7190C4601966B
:10593000544305977E43371B7646BF1B3601B64658
:10594000BE0B361900967646BC043719009C01D36D
:10595000641C00946400002F01D001263443029E91
:10596000049F754366467E430496760034196E00A4
:1059700034190094029C019E1C196643751BAE46A7
:10598000069465464519059C05956C435943754633
:105990000891691A0191049E01465143A41B049188
:1059A000611A009C0791E10605D0610901221143AB
:1059B00002E072E06EE06109089D00272C0A2D06C6
:1059C0006918049D7C412A0A2D066918019D6241CF
:1059D000AC0DAD026D185441079A910D9202551904
:1059E0006141029A644658435443069B059A5A43C0
:1059F000121A131B9A0E9B015B187A41010B0005CA
:105A0000C3185141220A200644195A419A4200D231
:105A1000491C01204002814203D315230226F6438C
:105A200002E014230326F6432020C51AA940174696
:105A3000AF40DA400A4320460399D840091473184E
:105A400019055118039A3843D2075140AC4009D088
:105A50000122944006D30022401C5141002C01D168
:105A6000400840001E4A934212D301220398920636
:105A7000904207DB0520400709181A480143C0126D
:105A8000414004E0032040070818C10FC907002067
:105A900009B0F0BD0020F107FAE705180C464C41AB
:105AA00011486D42A04115D394181A465A410E4828
:105AB000644290410ED301204A004005824209D33E
:105AC0005A00824206D35940C90F084AC90700202C
:105AD0001143DDE700200649DAE700000000FF0778
